{
  "_format": "hh-sol-artifact-1",
  "contractName": "Ledger",
  "sourceName": "contracts/Ledger.sol",
  "abi": [
    {
      "anonymous": false,
      "inputs": [
        {
          "indexed": true,
          "internalType": "uint256",
          "name": "userId",
          "type": "uint256"
        },
        {
          "indexed": true,
          "internalType": "uint256",
          "name": "receiverId",
          "type": "uint256"
        },
        {
          "indexed": false,
          "internalType": "uint256",
          "name": "amount",
          "type": "uint256"
        },
        {
          "indexed": false,
          "internalType": "string",
          "name": "description",
          "type": "string"
        },
        {
          "indexed": false,
          "internalType": "uint256",
          "name": "timestamp",
          "type": "uint256"
        }
      ],
      "name": "TransactionCreated",
      "type": "event"
    },
    {
      "inputs": [
        {
          "internalType": "uint256",
          "name": "_userId",
          "type": "uint256"
        },
        {
          "internalType": "uint256",
          "name": "_receiverId",
          "type": "uint256"
        },
        {
          "internalType": "uint256",
          "name": "_amount",
          "type": "uint256"
        },
        {
          "internalType": "string",
          "name": "_description",
          "type": "string"
        }
      ],
      "name": "createTransaction",
      "outputs": [],
      "stateMutability": "nonpayable",
      "type": "function"
    },
    {
      "inputs": [
        {
          "internalType": "uint256",
          "name": "_index",
          "type": "uint256"
        }
      ],
      "name": "getTransaction",
      "outputs": [
        {
          "internalType": "uint256",
          "name": "userId",
          "type": "uint256"
        },
        {
          "internalType": "uint256",
          "name": "receiverId",
          "type": "uint256"
        },
        {
          "internalType": "uint256",
          "name": "amount",
          "type": "uint256"
        },
        {
          "internalType": "string",
          "name": "description",
          "type": "string"
        },
        {
          "internalType": "uint256",
          "name": "timestamp",
          "type": "uint256"
        }
      ],
      "stateMutability": "view",
      "type": "function"
    },
    {
      "inputs": [],
      "name": "getTransactionCount",
      "outputs": [
        {
          "internalType": "uint256",
          "name": "",
          "type": "uint256"
        }
      ],
      "stateMutability": "view",
      "type": "function"
    },
    {
      "inputs": [
        {
          "internalType": "uint256",
          "name": "_userId",
          "type": "uint256"
        }
      ],
      "name": "getTransactionsByUser",
      "outputs": [
        {
          "components": [
            {
              "internalType": "uint256",
              "name": "userId",
              "type": "uint256"
            },
            {
              "internalType": "uint256",
              "name": "receiverId",
              "type": "uint256"
            },
            {
              "internalType": "uint256",
              "name": "amount",
              "type": "uint256"
            },
            {
              "internalType": "string",
              "name": "description",
              "type": "string"
            },
            {
              "internalType": "uint256",
              "name": "timestamp",
              "type": "uint256"
            }
          ],
          "internalType": "struct Ledger.Transaction[]",
          "name": "",
          "type": "tuple[]"
        }
      ],
      "stateMutability": "view",
      "type": "function"
    },
    {
      "inputs": [
        {
          "internalType": "uint256",
          "name": "",
          "type": "uint256"
        }
      ],
      "name": "transactions",
      "outputs": [
        {
          "internalType": "uint256",
          "name": "userId",
          "type": "uint256"
        },
        {
          "internalType": "uint256",
          "name": "receiverId",
          "type": "uint256"
        },
        {
          "internalType": "uint256",
          "name": "amount",
          "type": "uint256"
        },
        {
          "internalType": "string",
          "name": "description",
          "type": "string"
        },
        {
          "internalType": "uint256",
          "name": "timestamp",
          "type": "uint256"
        }
      ],
      "stateMutability": "view",
      "type": "function"
    }
  ],
  "bytecode": "0x6080604052348015600f57600080fd5b50610ff08061001f6000396000f3fe608060405234801561001057600080fd5b50600436106100575760003560e01c80632e7700f01461005c57806333989ebd1461007a57806333ea3dc8146100965780635cb63ed2146100ca5780639ace38c2146100fa575b600080fd5b61006461012e565b60405161007191906106af565b60405180910390f35b610094600480360381019061008f9190610850565b61013a565b005b6100b060048036038101906100ab91906108d3565b610215565b6040516100c195949392919061097f565b60405180910390f35b6100e460048036038101906100df91906108d3565b61037b565b6040516100f19190610b6a565b60405180910390f35b610114600480360381019061010f91906108d3565b610599565b60405161012595949392919061097f565b60405180910390f35b60008080549050905090565b60006040518060a00160405280868152602001858152602001848152602001838152602001428152509050600081908060018154018082558091505060019003906000526020600020906005020160009091909190915060008201518160000155602082015181600101556040820151816002015560608201518160030190816101c49190610d98565b5060808201518160040155505083857f1571ddc3b8f2c1c59eda0c08bd157744ac28bb574e689a60bb587580a7fba60e85854260405161020693929190610e6a565b60405180910390a35050505050565b60008060006060600080805490508610610264576040517f08c379a000000000000000000000000000000000000000000000000000000000815260040161025b90610ef4565b60405180910390fd5b600080878154811061027957610278610f14565b5b90600052602060002090600502016040518060a00160405290816000820154815260200160018201548152602001600282015481526020016003820180546102c090610bbb565b80601f01602080910402602001604051908101604052809291908181526020018280546102ec90610bbb565b80156103395780601f1061030e57610100808354040283529160200191610339565b820191906000526020600020905b81548152906001019060200180831161031c57829003601f168201915b50505050508152602001600482015481525050905080600001518160200151826040015183606001518460800151955095509550955095505091939590929450565b60606000805b6000805490508110156103d65783600082815481106103a3576103a2610f14565b5b906000526020600020906005020160000154036103c95781806103c590610f72565b9250505b8080600101915050610381565b5060008167ffffffffffffffff8111156103f3576103f2610725565b5b60405190808252806020026020018201604052801561042c57816020015b610419610667565b8152602001906001900390816104115790505b5090506000805b60008054905081101561058d57856000828154811061045557610454610f14565b5b9060005260206000209060050201600001540361058057600081815481106104805761047f610f14565b5b90600052602060002090600502016040518060a00160405290816000820154815260200160018201548152602001600282015481526020016003820180546104c790610bbb565b80601f01602080910402602001604051908101604052809291908181526020018280546104f390610bbb565b80156105405780601f1061051557610100808354040283529160200191610540565b820191906000526020600020905b81548152906001019060200180831161052357829003601f168201915b5050505050815260200160048201548152505083838151811061056657610565610f14565b5b6020026020010181905250818061057c90610f72565b9250505b8080600101915050610433565b50819350505050919050565b600081815481106105a957600080fd5b90600052602060002090600502016000915090508060000154908060010154908060020154908060030180546105de90610bbb565b80601f016020809104026020016040519081016040528092919081815260200182805461060a90610bbb565b80156106575780601f1061062c57610100808354040283529160200191610657565b820191906000526020600020905b81548152906001019060200180831161063a57829003601f168201915b5050505050908060040154905085565b6040518060a0016040528060008152602001600081526020016000815260200160608152602001600081525090565b6000819050919050565b6106a981610696565b82525050565b60006020820190506106c460008301846106a0565b92915050565b6000604051905090565b600080fd5b600080fd5b6106e781610696565b81146106f257600080fd5b50565b600081359050610704816106de565b92915050565b600080fd5b600080fd5b6000601f19601f8301169050919050565b7f4e487b7100000000000000000000000000000000000000000000000000000000600052604160045260246000fd5b61075d82610714565b810181811067ffffffffffffffff8211171561077c5761077b610725565b5b80604052505050565b600061078f6106ca565b905061079b8282610754565b919050565b600067ffffffffffffffff8211156107bb576107ba610725565b5b6107c482610714565b9050602081019050919050565b82818337600083830152505050565b60006107f36107ee846107a0565b610785565b90508281526020810184848401111561080f5761080e61070f565b5b61081a8482856107d1565b509392505050565b600082601f8301126108375761083661070a565b5b81356108478482602086016107e0565b91505092915050565b6000806000806080858703121561086a576108696106d4565b5b6000610878878288016106f5565b9450506020610889878288016106f5565b935050604061089a878288016106f5565b925050606085013567ffffffffffffffff8111156108bb576108ba6106d9565b5b6108c787828801610822565b91505092959194509250565b6000602082840312156108e9576108e86106d4565b5b60006108f7848285016106f5565b91505092915050565b600081519050919050565b600082825260208201905092915050565b60005b8381101561093a57808201518184015260208101905061091f565b60008484015250505050565b600061095182610900565b61095b818561090b565b935061096b81856020860161091c565b61097481610714565b840191505092915050565b600060a08201905061099460008301886106a0565b6109a160208301876106a0565b6109ae60408301866106a0565b81810360608301526109c08185610946565b90506109cf60808301846106a0565b9695505050505050565b600081519050919050565b600082825260208201905092915050565b6000819050602082019050919050565b610a0e81610696565b82525050565b600082825260208201905092915050565b6000610a3082610900565b610a3a8185610a14565b9350610a4a81856020860161091c565b610a5381610714565b840191505092915050565b600060a083016000830151610a766000860182610a05565b506020830151610a896020860182610a05565b506040830151610a9c6040860182610a05565b5060608301518482036060860152610ab48282610a25565b9150506080830151610ac96080860182610a05565b508091505092915050565b6000610ae08383610a5e565b905092915050565b6000602082019050919050565b6000610b00826109d9565b610b0a81856109e4565b935083602082028501610b1c856109f5565b8060005b85811015610b585784840389528151610b398582610ad4565b9450610b4483610ae8565b925060208a01995050600181019050610b20565b50829750879550505050505092915050565b60006020820190508181036000830152610b848184610af5565b905092915050565b7f4e487b7100000000000000000000000000000000000000000000000000000000600052602260045260246000fd5b60006002820490506001821680610bd357607f821691505b602082108103610be657610be5610b8c565b5b50919050565b60008190508160005260206000209050919050565b60006020601f8301049050919050565b600082821b905092915050565b600060088302610c4e7fffffffffffffffffffffffffffffffffffffffffffffffffffffffffffffffff82610c11565b610c588683610c11565b95508019841693508086168417925050509392505050565b6000819050919050565b6000610c95610c90610c8b84610696565b610c70565b610696565b9050919050565b6000819050919050565b610caf83610c7a565b610cc3610cbb82610c9c565b848454610c1e565b825550505050565b600090565b610cd8610ccb565b610ce3818484610ca6565b505050565b5b81811015610d0757610cfc600082610cd0565b600181019050610ce9565b5050565b601f821115610d4c57610d1d81610bec565b610d2684610c01565b81016020851015610d35578190505b610d49610d4185610c01565b830182610ce8565b50505b505050565b600082821c905092915050565b6000610d6f60001984600802610d51565b1980831691505092915050565b6000610d888383610d5e565b9150826002028217905092915050565b610da182610900565b67ffffffffffffffff811115610dba57610db9610725565b5b610dc48254610bbb565b610dcf828285610d0b565b600060209050601f831160018114610e025760008415610df0578287015190505b610dfa8582610d7c565b865550610e62565b601f198416610e1086610bec565b60005b82811015610e3857848901518255600182019150602085019450602081019050610e13565b86831015610e555784890151610e51601f891682610d5e565b8355505b6001600288020188555050505b505050505050565b6000606082019050610e7f60008301866106a0565b8181036020830152610e918185610946565b9050610ea060408301846106a0565b949350505050565b7f5472616e73616374696f6e20646f6573206e6f74206578697374000000000000600082015250565b6000610ede601a8361090b565b9150610ee982610ea8565b602082019050919050565b60006020820190508181036000830152610f0d81610ed1565b9050919050565b7f4e487b7100000000000000000000000000000000000000000000000000000000600052603260045260246000fd5b7f4e487b7100000000000000000000000000000000000000000000000000000000600052601160045260246000fd5b6000610f7d82610696565b91507fffffffffffffffffffffffffffffffffffffffffffffffffffffffffffffffff8203610faf57610fae610f43565b5b60018201905091905056fea2646970667358221220a281b468756bd6519650eed93d0e4ee66a6e8a5fbb7325753bd6895a6730776164736f6c634300081c0033",
  "linkReferences": {},
  "deployedLinkReferences": {}
}